{
  "contractName": "Cars",
  "abi": [
    {
      "constant": true,
      "inputs": [],
      "name": "numCars",
      "outputs": [
        {
          "name": "",
          "type": "uint256"
        }
      ],
      "payable": false,
      "stateMutability": "view",
      "type": "function"
    },
    {
      "constant": true,
      "inputs": [
        {
          "name": "",
          "type": "uint256"
        }
      ],
      "name": "cars",
      "outputs": [
        {
          "name": "colour",
          "type": "bytes3"
        },
        {
          "name": "doors",
          "type": "uint8"
        },
        {
          "name": "distance",
          "type": "uint256"
        },
        {
          "name": "lat",
          "type": "uint16"
        },
        {
          "name": "lon",
          "type": "uint16"
        },
        {
          "name": "status",
          "type": "uint8"
        },
        {
          "name": "owner",
          "type": "address"
        }
      ],
      "payable": false,
      "stateMutability": "view",
      "type": "function"
    },
    {
      "inputs": [],
      "payable": false,
      "stateMutability": "nonpayable",
      "type": "constructor"
    },
    {
      "anonymous": false,
      "inputs": [
        {
          "indexed": true,
          "name": "fromCar",
          "type": "uint256"
        },
        {
          "indexed": true,
          "name": "atCar",
          "type": "uint256"
        }
      ],
      "name": "CarHonk",
      "type": "event"
    },
    {
      "constant": false,
      "inputs": [
        {
          "name": "colour",
          "type": "bytes3"
        },
        {
          "name": "doors",
          "type": "uint8"
        },
        {
          "name": "distance",
          "type": "uint256"
        },
        {
          "name": "lat",
          "type": "uint16"
        },
        {
          "name": "lon",
          "type": "uint16"
        }
      ],
      "name": "addCar",
      "outputs": [
        {
          "name": "carId",
          "type": "uint256"
        }
      ],
      "payable": true,
      "stateMutability": "payable",
      "type": "function"
    },
    {
      "constant": false,
      "inputs": [
        {
          "name": "carId",
          "type": "uint256"
        }
      ],
      "name": "driveCar",
      "outputs": [],
      "payable": false,
      "stateMutability": "nonpayable",
      "type": "function"
    },
    {
      "constant": false,
      "inputs": [
        {
          "name": "carId",
          "type": "uint256"
        },
        {
          "name": "lat",
          "type": "uint16"
        },
        {
          "name": "lon",
          "type": "uint16"
        }
      ],
      "name": "parkCar",
      "outputs": [],
      "payable": false,
      "stateMutability": "nonpayable",
      "type": "function"
    },
    {
      "constant": false,
      "inputs": [
        {
          "name": "carId",
          "type": "uint256"
        },
        {
          "name": "otherCarId",
          "type": "uint256"
        }
      ],
      "name": "honkCar",
      "outputs": [],
      "payable": false,
      "stateMutability": "nonpayable",
      "type": "function"
    }
  ],
  "bytecode": "0x60806040526000805534801561001457600080fd5b50610d4c806100246000396000f3fe608060405260043610610078576000357c0100000000000000000000000000000000000000000000000000000000900463ffffffff1680632419e9c81461007d5780636977eaaa146100a8578063cb6bc4ad146100ed578063d1aaff7014610128578063da54dc70146101bd578063f7746e3614610214575b600080fd5b34801561008957600080fd5b5061009261031d565b6040518082815260200191505060405180910390f35b3480156100b457600080fd5b506100eb600480360360408110156100cb57600080fd5b810190808035906020019092919080359060200190929190505050610323565b005b3480156100f957600080fd5b506101266004803603602081101561011057600080fd5b810190808035906020019092919050505061050b565b005b6101a7600480360360a081101561013e57600080fd5b8101908080357cffffffffffffffffffffffffffffffffffffffffffffffffffffffffff19169060200190929190803560ff16906020019092919080359060200190929190803561ffff169060200190929190803561ffff1690602001909291905050506106fc565b6040518082815260200191505060405180910390f35b3480156101c957600080fd5b50610212600480360360608110156101e057600080fd5b8101908080359060200190929190803561ffff169060200190929190803561ffff169060200190929190505050610980565b005b34801561022057600080fd5b5061024d6004803603602081101561023757600080fd5b8101908080359060200190929190505050610bd4565b60405180887cffffffffffffffffffffffffffffffffffffffffffffffffffffffffff19167cffffffffffffffffffffffffffffffffffffffffffffffffffffffffff191681526020018760ff1660ff1681526020018681526020018561ffff1661ffff1681526020018461ffff1661ffff1681526020018360018111156102d157fe5b60ff1681526020018273ffffffffffffffffffffffffffffffffffffffff1673ffffffffffffffffffffffffffffffffffffffff16815260200197505050505050505060405180910390f35b60005481565b813373ffffffffffffffffffffffffffffffffffffffff166001600083815260200190815260200160002060020160059054906101000a900473ffffffffffffffffffffffffffffffffffffffff1673ffffffffffffffffffffffffffffffffffffffff161415156103fd576040517f08c379a00000000000000000000000000000000000000000000000000000000081526004018080602001828103825260188152602001807f796f75206e65656420746f206f776e207468697320636172000000000000000081525060200191505060405180910390fd5b600073ffffffffffffffffffffffffffffffffffffffff166001600084815260200190815260200160002060020160059054906101000a900473ffffffffffffffffffffffffffffffffffffffff1673ffffffffffffffffffffffffffffffffffffffff16141515156104d8576040517f08c379a00000000000000000000000000000000000000000000000000000000081526004018080602001828103825260148152602001807f6f7468657220636172206d75737420657869737400000000000000000000000081525060200191505060405180910390fd5b81837f3d2617031a0ef419708777b5ba73f450442507209fef7beef030f04bbfdbc5a960405160405180910390a3505050565b803373ffffffffffffffffffffffffffffffffffffffff166001600083815260200190815260200160002060020160059054906101000a900473ffffffffffffffffffffffffffffffffffffffff1673ffffffffffffffffffffffffffffffffffffffff161415156105e5576040517f08c379a00000000000000000000000000000000000000000000000000000000081526004018080602001828103825260188152602001807f796f75206e65656420746f206f776e207468697320636172000000000000000081525060200191505060405180910390fd5b8160018060018111156105f457fe5b6001600084815260200190815260200160002060020160049054906101000a900460ff16600181111561062357fe5b1415156106be576040517f08c379a00000000000000000000000000000000000000000000000000000000081526004018080602001828103825260218152602001807f636172206973206e6f7420696e2074686520726571756972656420737461747581526020017f730000000000000000000000000000000000000000000000000000000000000081525060400191505060405180910390fd5b60006001600086815260200190815260200160002060020160046101000a81548160ff021916908360018111156106f157fe5b021790555050505050565b600067016345785d8a0000341115156107a3576040517f08c379a00000000000000000000000000000000000000000000000000000000081526004018080602001828103825260268152602001807f596f75206e656564206174206c6561737420302e312045544820746f2067657481526020017f206120636172000000000000000000000000000000000000000000000000000081525060400191505060405180910390fd5b600080815460010191905081905590506107bb610c96565b60e060405190810160405280887cffffffffffffffffffffffffffffffffffffffffffffffffffffffffff191681526020018760ff1681526020018681526020018561ffff1681526020018461ffff16815260200160018081111561081c57fe5b81526020013373ffffffffffffffffffffffffffffffffffffffff168152509050806001600084815260200190815260200160002060008201518160000160006101000a81548162ffffff02191690837d0100000000000000000000000000000000000000000000000000000000009004021790555060208201518160000160036101000a81548160ff021916908360ff1602179055506040820151816001015560608201518160020160006101000a81548161ffff021916908361ffff16021790555060808201518160020160026101000a81548161ffff021916908361ffff16021790555060a08201518160020160046101000a81548160ff0219169083600181111561092757fe5b021790555060c08201518160020160056101000a81548173ffffffffffffffffffffffffffffffffffffffff021916908373ffffffffffffffffffffffffffffffffffffffff1602179055509050505095945050505050565b823373ffffffffffffffffffffffffffffffffffffffff166001600083815260200190815260200160002060020160059054906101000a900473ffffffffffffffffffffffffffffffffffffffff1673ffffffffffffffffffffffffffffffffffffffff16141515610a5a576040517f08c379a00000000000000000000000000000000000000000000000000000000081526004018080602001828103825260188152602001807f796f75206e65656420746f206f776e207468697320636172000000000000000081525060200191505060405180910390fd5b836000806001811115610a6957fe5b6001600084815260200190815260200160002060020160049054906101000a900460ff166001811115610a9857fe5b141515610b33576040517f08c379a00000000000000000000000000000000000000000000000000000000081526004018080602001828103825260218152602001807f636172206973206e6f7420696e2074686520726571756972656420737461747581526020017f730000000000000000000000000000000000000000000000000000000000000081525060400191505060405180910390fd5b600180600088815260200190815260200160002060020160046101000a81548160ff02191690836001811115610b6557fe5b0217905550846001600088815260200190815260200160002060020160006101000a81548161ffff021916908361ffff160217905550836001600088815260200190815260200160002060020160026101000a81548161ffff021916908361ffff160217905550505050505050565b60016020528060005260406000206000915090508060000160009054906101000a90047d01000000000000000000000000000000000000000000000000000000000002908060000160039054906101000a900460ff16908060010154908060020160009054906101000a900461ffff16908060020160029054906101000a900461ffff16908060020160049054906101000a900460ff16908060020160059054906101000a900473ffffffffffffffffffffffffffffffffffffffff16905087565b60e06040519081016040528060007cffffffffffffffffffffffffffffffffffffffffffffffffffffffffff19168152602001600060ff16815260200160008152602001600061ffff168152602001600061ffff16815260200160006001811115610cfd57fe5b8152602001600073ffffffffffffffffffffffffffffffffffffffff168152509056fea165627a7a723058200d5483d49d1afcbdee19da10b3977cbf34eb33c1485539dd942711c4784869c80029",
  "source": "// events\npragma solidity ^0.5.0;\n\ncontract Cars {\n\n    enum CarStatus { driving, parked }\n\n    event CarHonk (uint256 indexed fromCar, uint256 indexed atCar);\n\n    struct Car {\n        bytes3 colour;\n        uint8 doors;\n        uint256 distance;\n        uint16 lat;\n        uint16 lon;\n        CarStatus status;\n        address owner;\n    }\n\n    uint256 public numCars = 0;\n    mapping(uint256 => Car) public cars;\n\n    constructor() public {}\n\n    function addCar(\n        bytes3 colour,\n        uint8 doors,\n        uint256 distance,\n        uint16 lat,\n        uint16 lon\n    ) public payable returns(uint256 carId) {\n        require(msg.value > 0.1 ether, \"You need at least 0.1 ETH to get a car\");\n        carId = ++numCars;\n        Car memory newCar = Car(\n            colour,\n            doors,\n            distance,\n            lat,\n            lon,\n            CarStatus.parked,\n            msg.sender\n        );\n        cars[carId] = newCar;\n    }\n\n    modifier onlyCarOwner(uint256 carId) {\n        require(cars[carId].owner == msg.sender, \"you need to own this car\");\n        _;\n    }\n\n    modifier onlyCarStatus(uint256 carId, CarStatus expectedStatus) {\n        require(cars[carId].status == expectedStatus, \"car is not in the required status\");\n        _;\n    }\n\n    function driveCar(uint256 carId)\n        public\n        onlyCarOwner(carId)\n        onlyCarStatus(carId, CarStatus.parked)\n    {\n        cars[carId].status = CarStatus.driving;\n    }\n\n    function parkCar(uint256 carId, uint16 lat, uint16 lon)\n        public\n        onlyCarOwner(carId)\n        onlyCarStatus(carId, CarStatus.driving)\n    {\n        cars[carId].status = CarStatus.parked;\n        cars[carId].lat = lat;\n        cars[carId].lon = lon;\n    }\n\n    function honkCar(uint256 carId, uint256 otherCarId)\n        public\n        onlyCarOwner(carId)\n    {\n        require(cars[otherCarId].owner != address(0x00), \"other car must exist\");\n        emit CarHonk(carId, otherCarId);\n    }\n}",
  "sourcePath": "/home/syoo/Documents/BlockChain/blockchain-demo/dadc-cars/contracts/Cars.sol",
  "compiler": {
    "name": "solc",
    "version": "0.5.0+commit.1d4f565a.Emscripten.clang"
  },
  "schemaVersion": "3.0.9",
  "updatedAt": "2019-05-22T09:21:28.447Z",
  "devdoc": {
    "methods": {}
  },
  "userdoc": {
    "methods": {}
  }
}